:10000000D4C0EEC0EDC0ECC0EBC0EAC0E9C0E8C0AF
:10001000E7C0E6C0E5C0E4C0E3C0E2C0E1C0E0C0C4
:10002000DFC0DEC0DDC007634236B79BD8A71A39F0
:10003000685618AEBAAB558C1D3CB7CC5763BD6D36
:10004000EDFD753EF6177231BF000000803F0800DD
:100050000000BE922449123EABAAAA2ABECDCCCC47
:100060004C3E00000080BEABAAAAAA3E00000000E1
:10007000BF000000803F0000000000084178D3BBB3
:100080004387D1133D190E3CC3BD4282AD2B3E6860
:10009000EC8276BED98FE1A93E4C80EFFFBE01C451
:1000A000FF7F3F00000000006E616E00696E660019
:1000B00000407A10F35A00A0724E18090010A5D41F
:1000C000E80000E87648170000E40B54020000CA7C
:1000D0009A3B000000E1F5050000809698000000C2
:1000E00040420F000000A086010000001027000021
:1000F0000000E803000000006400000000000A00A7
:10010000000000000100000000002C76D888DC67A9
:100110004F0823DFC1DFAE59E1B1B796E5E3E45301
:10012000C63AE651997696E8E6C28426EB898C9B1E
:1001300062ED407C6FFCEFBC9C9F40F2BAA56FA5BE
:10014000F490055A2AF75C936B6CF9676DC11BFC40
:10015000E0E40D47FEF520E6B500D0ED902E03005B
:10016000943577050080841E080000204E0A0000A8
:1001700000C80C333333330F986E12831141EF8D67
:100180002114893BE65516CFFEE6DB18D1844B38A7
:100190001BF77C1D901DA4BBE424203284725E22D8
:1001A0008100C9F124ECA1E53D2711241FBECFE554
:1001B000D4E0DEBFCDBF10E0A0E6B0E0E6E8FFE1AE
:1001C00002C005900D92AA3DB107D9F720E0AAED33
:1001D000B0E001C01D92A83EB207E1F702D4D1CE33
:1001E0000FCFCF93C82F8A3011F48DE0FADF5D9BDB
:1001F000FECFCCB980E090E0CF9108952F923F924E
:100200004F925F926F927F928F929F92AF92BF9226
:10021000CF92DF92EF92FF920F931F93CF93DF93D2
:10022000CDB7DEB728970FB6F894DEBF0FBECDBFAF
:1002300069017A0128018C011B012091DA003091BB
:10024000DB003A83298318861F82662457FC60945A
:10025000762C2F81388589819A812817390791F169
:10026000F80181909190A190B1908F014F815885B4
:100270004F5F5F4F58874F83C301B201F1D49B0199
:10028000AC016F817885882777FD8095982F2B8327
:100290003C834D835E83E4D42B813C814D815E8120
:1002A000F6D59B01AC01C701B6018ED59B01AC010F
:1002B000C501B40102D4F1016193719381939193CB
:1002C0001F01C7CF28960FB6F894DEBF0FBECDBF73
:1002D000DF91CF911F910F91FF90EF90DF90CF9022
:1002E000BF90AF909F908F907F906F905F904F9056
:1002F0003F902F900895AF92BF92CF92DF92EF92EE
:10030000FF920F931F93CF93DF93A090DA00B090EA
:10031000DB008C01C1E0D0E0CA15DB05F8F4F80180
:1003200061917191819191918F01208131814281FF
:100330005381C3D36B017C012CEA35EC47E257E3D0
:1003400021D418166CF02CEA35EC47E257EBC701C4
:10035000B60136D587FD04C02196DECF80E001C00E
:1003600081E0DF91CF911F910F91FF90EF90DF908F
:10037000CF90BF90AF9008950F931F93CF93DF93CB
:100380008B01D82FC92F20E030E040E050E4FAD3B1
:10039000181674F020E030E0A901B8018D2F9C2FD1
:1003A000F1D31816BCF000E010E0D0E8CFE312C0A3
:1003B00020E030E040E85FE3B8018D2F9C2F7DD333
:1003C000DBDF9B01AC01B8018D2F9C2FFDD48B018D
:1003D000D82FC92FB8018D2F9C2FDF91CF911F915E
:1003E0000F9108952F923F924F925F926F927F925A
:1003F0008F929F92AF92BF92CF92DF92EF92FF9235
:100400000F931F93CF93DF9300D000D01F92CDB7EF
:10041000DEB75C011B015B834A836DDF81110FC076
:10042000F5012081318142815381F10120833183A3
:1004300042835383AA81BB811D921C9213C184E025
:1004400090E01DDA8C018090DA009090DB00C4010E
:100450008150904C880F991F880F991F10DA2C013A
:10046000F80191838083D5012D913D914D915C914F
:10047000139714966D917D918D919C9117971DD333
:10048000F2016083718382839383F4E0AF0EB11C29
:100490007201CC24C394D12C712C21E0821A9108D2
:1004A000C814D90410F5F5012081318142815381AE
:1004B00084E0A80EB11C6481758186819781FDD28C
:1004C000F70164837583868397832081318142811C
:1004D0005381B4E0EB0EF11C55D3882311F077243F
:1004E0007394EFEFCE1ADE0ADBCF711008C0D20191
:1004F0008D909D90AD90BC9081E090E096C0E12CF5
:10050000F12C64E070E0C801E1DA8C0197012F5F03
:100510003F4F3D832C83A090DA00B090DB00AE18F3
:10052000BF08C5018150904C880F991F880F991FF3
:10053000A6D94C01EC81FD81E170FF27EE0FFF1F72
:10054000E00FF11F91838083F701E170FF27EE0F29
:10055000FF1FE00FF11FC080D180D6012D913D918A
:100560004D915C91139714966D917D918D919C9115
:100570001797A3D22B013C01F4016083718382831E
:1005800093832CEA35EC47E257E3FCD218166CF45F
:100590003601F4E06F0E711C640144244394512C25
:1005A000198222E0A21AB10830C02CEA35EC47E2E9
:1005B00057EBC301B20104D487FDEACFF601808076
:1005C0009180A280B38033C0F301208131814281C8
:1005D0005381B4E06B0E711C6481758186819781B3
:1005E0006CD2F60164837583868397832081318181
:1005F00042815381B4E0CB0ED11CC4D2882311F0C8
:1006000031E03983FFEF4F1A5F0A4A145B04E0F2CE
:100610005980552019F0EC80FD8073CFD4018D9066
:100620009D90AD90BC90C70102969D838C83C801BC
:10063000BED94C815D81BA01882777FD8095982FBE
:100640000FD39ADE9B01AC01C501B4019FD2F10129
:1006500060837183828393836C817D81EA81FB81D6
:10066000718360830F900F900F900F900F90DF9128
:10067000CF911F910F91FF90EF90DF90CF90BF909F
:10068000AF909F908F907F906F905F904F903F9032
:100690002F9008956F927F928F929F92AF92BF9208
:1006A000CF92DF92EF92FF920F931F93CF93DF933E
:1006B00000D000D000D0CDB7DEB77C0186E990E055
:1006C0009F938F93EFDBF092DD00E092DC0085E0FA
:1006D00090E09093DB008093DA0019821A821B82EB
:1006E0001C821E821D82AE014B5F5F4FBE016F5F99
:1006F0007F4FC70177DED980CA80BB80AC800F9066
:100700000F9020E030E040E85FE3D601F5016B2F69
:100710007A2F8F2F9E2F36D20D811E8181111DC001
:100720000130110541F480EA90E09F938F93BADB8A
:100730000F900F903DC00115110519F484E790E06A
:1007400002C085E790E01F930F939F938F93AADBDE
:100750000F900F900F900F902BC020E030E0A90178
:10076000D601F5016B2F7A2F8F2F9E2F0BD281117F
:1007700003C001151105E1F00115110531F001303B
:10078000110531F48EE890E005C087E890E002C0E2
:100790008CE790E01F930F93AF92BF92CF92DF92BE
:1007A0009F938F937FDB0FB6F894DEBF0FBECDBF54
:1007B00084E190E064D86C010D811E8129813A8129
:1007C0004B815C81BC01C70119DDAE014B5F5F4FFE
:1007D000BE016F5F7F4FC60105DEF980EA80BB80F6
:1007E000AC8020E030E040E85FE3D701F5016B2FFB
:1007F0007A2F8F2F9E2FC6D10D811E81811123C08C
:100800000130110571F480EA90E09F938F934ADBE9
:100810000F900F90612C712C70EA872E70E0972E4C
:100820006FC00115110519F484E790E002C085E757
:1008300090E01F930F939F938F9334DB0F900F9053
:100840000F900F90E7CF20E030E0A901D701F5012C
:100850006B2F7A2F8F2F9E2F95D1811103C00115F9
:100860001105C1F20115110531F00130110531F406
:100870008EE890E005C087E890E002C08CE790E049
:100880001F930F93AF92BF92EF92FF929F938F931C
:1008900009DB0FB6F894DEBF0FBECDBFBBCF6A1425
:1008A0007B0409F472C029813A814B815C81850106
:1008B000B601C601A3DCAE014B5F5F4FBE016F5FA7
:1008C0007F4FC6018FDD19810A817B806C8020E01B
:1008D00030E040E85FE3D801F3016B2F7A2F8F2FD0
:1008E0009E2F50D1ED80FE80811122C091E0E9164B
:1008F000F10461F49F928F92D5DA0F900F90350139
:10090000AD80BE80A114B10451F63FC0E114F104E2
:1009100019F484E790E002C085E790E0FF92EF923F
:100920009F938F93BFDA0F900F900F900F90E7CFA8
:1009300020E030E0A901D801F3016B2F7A2F8F2F2F
:100940009E2F20D1811103C0E114F104C1F2E11402
:10095000F10439F081E0E816F10431F48EE890E01A
:1009600005C087E890E002C08CE790E0FF92EF922C
:100970006F927F920F931F939F938F9393DA0FB68B
:10098000F894DEBF0FBECDBFBACF26960FB6F8944F
:10099000DEBF0FBECDBFDF91CF911F910F91FF90B2
:1009A000EF90DF90CF90BF90AF909F908F907F900F
:1009B0006F90089590BD89B988E18AB92EE820BD6D
:1009C000089580E487B927E826B9089597B187701C
:1009D000892B87B9369A349BFECF349A84B195B16E
:1009E0000895CF93DF93CDB7DEB764970FB6F89431
:1009F000DEBF0FBECDBFE5DF84E390E0DBDF86E640
:100A000090E09093E5008093E4001F9205E00F933F
:100A100085EA90E09F938F9345DA2FE784E89EE183
:100A2000215080409040E1F700C00000FE01319667
:100A30007F010F900F900F900F9000E010E05F018A
:100A4000EDEBCE2EE0E0DE2E80E0C0DF9927BC018A
:100A5000882777FD8095982F03D19B01AC012ED07C
:100A600020E030E04CE452E491D09B01AB01BC01AA
:100A7000F70141935193619371937F010F5F1F4F72
:100A80009F938F933F932F931F930F93DF92CF9258
:100A900009DAFFE724E88EE1F15020408040E1F7D9
:100AA00000C000000FB6F894DEBF0FBECDBF05300A
:100AB000110551F6C501EEDDFFCF5058BB27AA271F
:100AC0000ED044C135D130F03AD120F031F49F3FFF
:100AD00011F41EF42AC10EF4E095E7FB20C1E92FC2
:100AE00046D180F3BA17620773078407950718F099
:100AF00071F49EF55EC10EF4E0950B2EBA2FA02D79
:100B00000B01B90190010C01CA01A0011124FF27BA
:100B1000591B99F0593F50F4503E68F11A16F040B5
:100B2000A22F232F342F4427585FF3CF46953795B4
:100B30002795A795F0405395C9F77EF41F16BA0B79
:100B4000620B730B840BBAF09150A1F0FF0FBB1F27
:100B5000661F771F881FC2F70EC0BA0F621F731F70
:100B6000841F48F4879577956795B795F7959E3FCD
:100B700008F0B3CF9395880F08F09927EE0F97955B
:100B800087950895A8D008F481E008950CD0DEC0C0
:100B9000D6D040F0CDD030F021F45F3F19F0BFC087
:100BA000511108C1C2C0E3D098F39923C9F355236A
:100BB000B1F3951B550BBB27AA2762177307840750
:100BC00038F09F5F5F4F220F331F441FAA1FA9F306
:100BD00033D00E2E3AF0E0E830D091505040E695F8
:100BE000001CCAF729D0FE2F27D0660F771F881F59
:100BF000BB1F261737074807AB07B0E809F0BB0B48
:100C0000802DBF01FF2793585F4F2AF09E3F51056B
:100C100068F085C0CFC05F3FECF3983EDCF386956B
:100C200077956795B795F7959F5FC9F7880F911DE1
:100C30009695879597F90895E1E0660F771F881FCD
:100C4000BB1F621773078407BA0720F0621B730B80
:100C5000840BBA0BEE1F88F7E0950895E89409C05D
:100C600097FB3EF490958095709561957F4F8F4FDF
:100C70009F4F9923A9F0F92F96E9BB279395F695F5
:100C8000879577956795B795F111F8CFFAF4BB0F73
:100C900011F460FF1BC06F5F7F4F8F4F9F4F16C0D7
:100CA000882311F096E911C0772321F09EE8872F61
:100CB000762F05C0662371F096E8862F70E060E01D
:100CC0002AF09A95660F771F881FDAF7880F969596
:100CD000879597F90895990F0008550FAA0BE0E83A
:100CE000FEEF16161706E807F907C0F012161306EE
:100CF000E407F50798F0621B730B840B950B39F42E
:100D00000A2661F0232B242B252B21F408950A2693
:100D100009F4A140A6958FEF811D811D089597F9D3
:100D20009F6780E870E060E008959FEF80EC089591
:100D300000240A94161617061806090608950024BA
:100D40000A9412161306140605060895092E039434
:100D5000000C11F4882352F0BB0F40F4BF2B11F4A8
:100D600060FF04C06F5F7F4F8F4F9F4F089557FD07
:100D70009058440F551F59F05F3F71F04795880F09
:100D800097FB991F61F09F3F79F0879508951216A0
:100D900013061406551FF2CF4695F1DF08C016164C
:100DA00017061806991FF1CF8695710561050894FD
:100DB0000895E894BB2766277727CB0197F9089514
:100DC0008ADF08F48FEF08950BD0C0CFB1DF28F091
:100DD000B6DF18F0952309F0A2CFA7CF1124EACFF0
:100DE000C6DFA0F3959FD1F3950F50E0551F629F8A
:100DF000F001729FBB27F00DB11D639FAA27F00D74
:100E0000B11DAA1F649F6627B00DA11D661F829F9A
:100E10002227B00DA11D621F739FB00DA11D621F7F
:100E2000839FA00D611D221F749F3327A00D611D9C
:100E3000231F849F600D211D822F762F6A2F11247E
:100E40009F5750408AF0E1F088234AF0EE0FFF1FD1
:100E5000BB1F661F771F881F91505040A9F79E3F08
:100E6000510570F05CCFA6CF5F3FECF3983EDCF30A
:100E7000869577956795B795F795E7959F5FC1F745
:100E8000FE2B880F911D9695879597F90895FA0185
:100E9000EE0FFF1F30962105310599F1611571059F
:100EA00061F48038BFE39B0749F16894903881056D
:100EB00061F08038BFEF9B0741F0992342F5FF3F77
:100EC000E1053105210511F1E8940894E795D90170
:100ED000AA2329F4AB2FBE2FF85FD0F310C0FF5F19
:100EE00070F4A695E0F7F73950F019F0FF3A38F4AE
:100EF0009F779F930CD00F9007FC905808953EF079
:100F000014CF60E070E080E89FE308954FE79F779B
:100F10005F934F933F932F939ED02F913F914F918B
:100F20005F9152DF05C019F40EF0F9CE42CFFDCE2D
:100F300026DFC8F39638C0F707F80F92E8942BE342
:100F40003AEA48EB5FE74EDF0F920F920F924DB7F0
:100F50005EB70F92C0D0E6E2F0E016D04F915F91FD
:100F6000EF91FF91E595EE1FFF1F49F0FE57E068F6
:100F70004427EE0F441FFA95E1F74195550B32D007
:100F80000F9007FE26C00895DF93CF931F930F9312
:100F9000FF92EF92DF927B018C01689405C0DA2EFC
:100FA000EF011EDFFE01E894A59125913591459151
:100FB0005591AEF3EF0193DDFE019701A801DA949C
:100FC00079F7DF90EF90FF900F911F91CF91DF9114
:100FD00008959B01AC0160E070E080E89FE3D6CD0E
:100FE0009ECEACC0CCDEE8F39923D9F3940F511D0B
:100FF000BBF39150504094F059F0882332F0660FC3
:10100000771F881F91505040C1F79E3F510544F70C
:10101000880F911D9695879597F908955F3FACF0DD
:10102000983E9CF0BB27869577956795B79508F411
:10103000B1609395C1F7BB0F58F711F460FFE8CF8B
:101040006F5F7F4F8F4F9F4FE3CFB4CE0EF076C0D0
:101050006CCE689464CE93DEC8F39923D1F3C6F3C3
:10106000DF93CF931F930F93FF92C92FDD27882320
:101070002AF02197660F771F881FDAF720E030E00B
:1010800040E85FEB9FE3883920F0803E30F0219606
:101090008F7714DDEEE4F0E003C010DDEBE7F0E065
:1010A00073DF8B01BE01EC01FB2E6F577109759543
:1010B000771F880B990BD4DD28E132E741E35FE32A
:1010C0008FDEAF2D9801AE01FF900F911F91CF9150
:1010D000DF9105DD3BCEFA01DC01AA0FBB1F9B01AE
:1010E000AC01BF5728F422273327442750781FC06C
:1010F000B75188F4AB2F0024469537952795011CEE
:10110000A395D2F3002069F0220F331F441FB3953B
:10111000DAF30DD0D2CC61307105A0E88A07B94668
:1011200030F49B01AC0166277727882790783096AA
:1011300021F0208331834283538308959F3F31F010
:10114000915020F4879577956795B795880F911DF5
:101150009695879597F90895A3E1B0E0E1EBF8E063
:1011600057C37C011B016A01FC011782168283812F
:1011700081FF49C3BE016F5F7F4F4B01F701938130
:10118000F10193FD859193FF81911F01882309F45B
:1011900036C3853239F493FD859193FF81911F0108
:1011A000853231F4B70190E04BD656016501E6CFA8
:1011B00010E0512C20E02032A0F48B3269F030F4A2
:1011C000803259F0833269F420612CC08D3239F0BD
:1011D000803339F4216026C02260246023C0286057
:1011E00021C027FD27C030ED380F3A3078F426FFB4
:1011F00006C0FAE01F9F300D1124132F13C06AE0C0
:10120000569E300D1124532E20620CC08E3221F4D4
:1012100026FDF5C2206406C08C3611F4206802C099
:10122000883641F4F10193FD859193FF81911F016F
:101230008111C1CF9BEB980F933018F42061805E31
:1012400006C09BE9980F933008F09AC12F7E26FFC5
:1012500016E02F73722E853621F4F22FF0647F2E64
:1012600008C0863621F4622F6068762E02C0111104
:10127000115077FE07C01C3348F444244394410EB8
:1012800027E00BC0183030F4212F06C027E04CE3D4
:10129000442E03C027E017E0412C560174E0A70E4E
:1012A000B11CF6016081718182819381042DA401BA
:1012B000D0D46C01098100FF02C003FF06C071FC9D
:1012C00007C072FC08C0612C08C03DE2632E05C057
:1012D0002BE2622E02C090E2692E802F8C7081F189
:1012E000662011F084E001C083E0851510F0512CD8
:1012F0000AC0581A73FC07C0B70180E290E0A0D57D
:101300005A94D1F7F4CF662021F0B701862D90E0F2
:1013100097D503FD03C00CEA10E002C008EA10E014
:10132000F72DF0717F2EF8018491882309F45EC2B5
:1013300071108052B70190E083D50F5F1F4FF3CF3C
:1013400077FE0FC04C0C04FF04C08A81813309F47E
:101350004A94141474F5F8E0F41578F588E0482EF2
:101360002CC076FC2AC0812F90E08C159D059CF046
:101370006CEFC6166FEFD60674F0772D7068772E77
:101380000AC0E2E0F0E0EC0FFD1FE10FF11D8081EB
:10139000803319F411501111F4CF77FE0EC044249C
:1013A0004394410E812F90E0C816D9062CF41C19E5
:1013B00004C04424439401C010E077FE07C01C140D
:1013C0001D043CF496012F5F3F4F05C025E030E03F
:1013D00002C021E030E0662011F02F5F3F4F112363
:1013E00031F0412F50E04F5F5F4F240F351F452DE7
:1013F00050E02417350714F4521A01C0512C872DE0
:10140000897041F4552031F0B70180E290E018D5A1
:101410005A94F8CF662021F0B701862D90E010D5C0
:1014200073FC08C0552031F0B70180E390E008D587
:101430005A94F8CF77FE5DC09C2D8D2DD7FE02C04B
:1014400090E080E0692E782E40E050E0C6018419DB
:1014500091099D878C87960126193709280D391D1A
:10146000812F90E0EE27FF27E81BF90BFF87EE871F
:10147000FFEF6F167F0661F4B7018EE290E02B8BD1
:101480003A8B488B598BDCD4598948893A892B8906
:10149000C614D70454F06C857D85661577052CF449
:1014A000F901E40FF51F818101C080E371E0671A43
:1014B00071084F5F5F4FEE85FF856E167F0664F003
:1014C000B70190E02B8B3A8B488B598BB9D42B8981
:1014D0003A8948895989CCCF6C147D0439F49A81B2
:1014E000963318F4953311F404FF81E3B70190E0CB
:1014F00045C08A81813309F00F7EB70190E0A0D406
:10150000111105C074FE16C085E490E015C0B70146
:101510008EE290E095D482E066246394680EF40134
:10152000E80FF11D8081B70190E08AD4115051F38A
:10153000862DF2CF85E690E0B70182D4D7FC05C0B6
:10154000C114D10439F404FF05C0D194C194D10869
:101550008DE201C08BE2B70190E072D480E36AE0D3
:10156000C616D1042CF08F5FFAE0CF1AD108F7CF5E
:10157000B70190E065D4B701C601C09661D436C109
:10158000833631F0833779F0833509F054C020C0B9
:10159000560172E0A70EB11CF6018081898301E03B
:1015A00010E0640113C05601F2E0AF0EB11CF60169
:1015B000C080D18026FF03C0612F70E002C06FEFB2
:1015C0007FEFC6012B8B31D48C012B892F7714C070
:1015D0005601F2E0AF0EB11CF601C080D18026FFAB
:1015E00003C0612F70E002C06FEF7FEFC6012B8B4D
:1015F00008D48C012B892068722E23FD18C0852DFC
:1016000090E00817190798F4B70180E290E018D429
:101610005A94F5CFF60177FC859177FE81916F01A1
:10162000B70190E00DD451105A94015011090115E1
:10163000110581F7DBC0843611F0893649F5560172
:1016400027FF09C0F4E0AF0EB11CF6016081718183
:10165000828193810AC0F2E0AF0EB11CF601608175
:101660007181882777FD8095982F022F0F7697FF3D
:1016700008C090958095709561957F4F8F4F9F4FD3
:1016800000682AE030E0A4011ED4C82EC8183DC06E
:10169000022F853721F40F7E2AE030E01DC0097F3C
:1016A0008F3691F018F4883559F0A9C0803719F0B9
:1016B000883711F0A4C0006104FF09C0046007C0AE
:1016C00024FF08C0066006C028E030E005C020E125
:1016D00030E002C020E132E0560107FF09C0F4E02B
:1016E000AF0EB11CF601608171818281938108C0C7
:1016F000F2E0AF0EB11CF6016081718180E090E0F4
:10170000A401E1D3C82EC8180F7706FF0BC0202F05
:101710002E7FC11650F404FF0AC002FD08C0202F1E
:101720002E7E05C0DC2C202F03C0DC2C01C0D12E66
:1017300024FF0DC0FE01EC0DF11D8081803311F4FA
:10174000297E09C022FF06C0D394D39404C0822FFF
:10175000867809F0D39423FD12C020FF06C01C2D0B
:10176000D51418F4150D1D19D52CD51460F4B70136
:1017700080E290E02B8B64D3D3942B89F6CFD514E1
:1017800010F45D1801C0512C24FF11C0B70180E393
:1017900090E02B8B55D32B8922FF16C021FF03C06D
:1017A00088E590E002C088E790E0B7010CC0822F86
:1017B000867851F021FD02C080E201C08BE227FD56
:1017C0008DE2B70190E03CD3C11630F4B70180E35D
:1017D00090E036D31150F8CFCA94F401EC0DF11D0E
:1017E0008081B70190E02CD3C110F6CF552009F4C9
:1017F000DDCCB70180E290E023D35A94F7CFF70114
:101800008681978102C08FEF9FEF6396E2E11CC053
:101810002F923F924F925F926F927F928F929F9200
:10182000AF92BF92CF92DF92EF92FF920F931F93EE
:10183000CF93DF93CDB7DEB7CA1BDB0B0FB6F8949F
:10184000DEBF0FBECDBF09942A88398848885F84DF
:101850006E847D848C849B84AA84B984C884DF8050
:10186000EE80FD800C811B81AA81B981CE0FD11D34
:101870000FB6F894DEBF0FBECDBFED010895CF9334
:10188000DF938230910510F482E090E0E091E00077
:10189000F091E10020E030E0A0E0B0E0309739F1D5
:1018A0004081518148175907B8F04817590771F41A
:1018B00082819381109729F013969C938E931297AF
:1018C0002CC09093E1008093E00027C021153105E2
:1018D00031F04217530718F0A901DB0101C0EF01F5
:1018E0009A01BD01DF010280F381E02DD7CF2115E0
:1018F0003105F9F0281B390B2430310580F48A8139
:101900009B816115710521F0FB019383828304C0E3
:101910009093E1008093E000FE01329644C0FE0106
:10192000E20FF31F81939193225031093983288369
:101930003AC02091DE003091DF00232B41F420914A
:101940006200309163003093DF002093DE0020912D
:101950006000309161002115310541F42DB73EB78B
:101960004091640050916500241B350BE091DE002E
:10197000F091DF00E217F307A0F42E1B3F0B2817AE
:10198000390778F0AC014E5F5F4F2417350748F0F8
:101990004E0F5F1F5093DF004093DE0081939193C1
:1019A00002C0E0E0F0E0CF01DF91CF910895CF9346
:1019B000DF93009709F487C0FC01329713821282EB
:1019C000C091E000D091E100209781F42081318125
:1019D000280F391F8091DE009091DF008217930756
:1019E00079F5F093DF00E093DE006DC0DE0120E0CA
:1019F00030E0AE17BF0750F412964D915C911397EB
:101A00009D014115510509F1DA01F3CFB383A2839A
:101A100040815181840F951F8A179B0771F48D9126
:101A20009C911197840F951F029691838083129643
:101A30008D919C911397938382832115310529F40D
:101A4000F093E100E093E0003EC0D9011396FC93CF
:101A5000EE9312974D915D91A40FB51FEA17FB0706
:101A600079F480819181840F951F0296D901119696
:101A70009C938E938281938113969C938E9312975D
:101A8000E0E0F0E08A819B81009719F0FE01EC0113
:101A9000F9CFCE01029628813981820F931F2091C0
:101AA000DE003091DF002817390769F4309729F4F8
:101AB0001092E1001092E00002C013821282D093D3
:101AC000DF00C093DE00DF91CF910895A0E0B0E089
:101AD000EBE6FDE0A1CEEC01CB01209711F4CFDEC7
:101AE000B4C0FE01E60FF71F9E0122503109E21734
:101AF000F30708F4A8C0D9010D911C91119706179E
:101B00001707B0F00530110508F49BC0A801445038
:101B100051094617570708F494C002501109061BD3
:101B2000170B019311936D937C93CF0140DF89C014
:101B30005B01A01AB10A4E01800E911EA091E00037
:101B4000B091E100612C712C60E070E0109709F415
:101B500049C0A815B905C9F5ED90FC90119767012A
:101B600042E0C40ED11CCA14DB0478F147018A1884
:101B70009B08640142E0C40ED11C1296BC901297DF
:101B80001396AC91B5E0CB16D10440F0B282A3839A
:101B900091828082D9018D939C9309C00E5F1F4F63
:101BA0000E0D1F1DF90111830083EB2DFA2F611516
:101BB000710531F0DB011396FC93EE93129741C04F
:101BC000F093E100E093E0003CC06D917C911197AF
:101BD0006616770608F43B01BD0112960D90BC9184
:101BE000A02DB4CF6091DE007091DF0068157905FB
:101BF000E9F468167906D0F44091600050916100D4
:101C00004115510541F44DB75EB760916400709184
:101C10006500461B570BE417F507A8F4F093DF00A7
:101C2000E093DE00F901918380830BC028DE7C0104
:101C3000009749F0A801BE01EFD0CE01B8DEC70180
:101C400004C0CE0102C080E090E0CDB7DEB7EEE088
:101C5000FFCD283008F027E03327DA01990F311D36
:101C600087FD916000966105710539F432602E5F41
:101C70003D9330E32A95E1F708959F3F30F0803897
:101C80007105610509F03C5F3C5F3D93913008F0C0
:101C90008068911DDF93CF931F930F93FF92EF9274
:101CA000192F987F9695E92F96959695E90FFF271E
:101CB000E65FFE4F99273327EE24FF24A701E701B3
:101CC00005900894079428F4360FE71EF81E491F64
:101CD000511D660F771F881F991F0694A1F7059065
:101CE000079428F4E70EF81E491F561FC11D770FF1
:101CF000881F991F661F0694A1F70590079428F482
:101D0000F80E491F561FC71FD11D880F991F661F48
:101D1000771F0694A1F70590079420F4490F561FEA
:101D2000C71FD81F990F661F771F881F0694A9F732
:101D300084911095177041F0D695C79557954795A2
:101D4000F794E7941A95C1F7E0EBF0E068941590EA
:101D5000159135916591959105907FE27395E11804
:101D6000F10A430B560BC90BD009C0F7E10CF11E69
:101D7000431F561FC91FD01D7EF4703311F48A957E
:101D8000E6CFE894015030F0080F0AF4002702175C
:101D900008F4202F2395022F7A3328F079E37D93DE
:101DA0002A95E9F710C07D932A9589F606949795B0
:101DB0006795379517951794E118F10A430B560B61
:101DC000C90BD00998F023957E9173957A3308F06A
:101DD00070E37C932013B8F77E9170617D9330F0AF
:101DE000839571E37D9370E32A95E1F71124EF90D9
:101DF000FF900F911F91CF91DF91992787FD9095CB
:101E00000895FC010590615070400110D8F780954D
:101E100090958E0F9F1F0895FB01DC0102C0019079
:101E20000D9241505040D8F70895FC016150704028
:101E300001900110D8F7809590958E0F9F1F0895FF
:101E40000F931F93CF93DF93182F092FEB018B81F3
:101E500081FD03C08FEF9FEF20C082FF10C04E8135
:101E60005F812C813D81421753077CF4E881F98121
:101E70009F012F5F3F4F39832883108306C0E88579
:101E8000F985812F0995892B29F72E813F812F5FB5
:101E90003F4F3F832E83812F902FDF91CF911F9152
:101EA0000F910895A0E0B0E0E7E5FFE0C1CCFE01AE
:101EB000359661917191AF018091E4009091E500B8
:101EC0004BD9E2E0D1CCFA01AA27283051F12031D8
:101ED00081F1E8946F936E7F6E5F7F4F8F4F9F4FBE
:101EE000AF4FB1E03ED0B4E03CD0670F781F891F00
:101EF0009A1FA11D680F791F8A1F911DA11D6A0FCE
:101F0000711D811D911DA11D20D009F468943F9180
:101F10002AE0269F11243019305D3193DEF6CF017F
:101F20000895462F4770405D4193B3E00FD0C9F745
:101F3000F6CF462F4F70405D4A3318F0495D31FDB2
:101F40004052419302D0A9F7EACFB4E0A695979505
:101F5000879577956795BA95C9F7009761057105DB
:101F600008959B01AC010A2E069457954795379525
:101F70002795BA95C9F7620F731F841F951FA01D7F
:061F80000895F894FFCF64
:101F86000000E80020000000000200000000F10050
:101F9600000000002B28785E256429002B28256682
:101FA6002A785E256429002B282566290A002B2815
:101FB60025662A7829000A0A66287829203D200005
:101FC6002B28782900536572616F206C69646F73E2
:101FD6002025642076616C6F7265730A000A2054AE
:101FE60028256429202D3E2056616C6F7220646F6F
:0A1FF60020414443203D20256600F1
:00000001FF
